:020000040000fa
:080000000002040000000000f2
:020000040000fa
:04000800ce1700000f
:020000040000fa
:04000c00ce1700000b
:020000040000fa
:04001000ce17000007
:020000040000fa
:04001400ce17000003
:020000040000fa
:04001800ce170000ff
:020000040000fa
:04001c00ce170000fb
:020000040000fa
:04002000ce170000f7
:020000040000fa
:04002400ce170000f3
:020000040000fa
:04002800ce170000ef
:020000040000fa
:04002c00ce170000eb
:020000040000fa
:04003000ce170000e7
:020000040000fa
:04003400ce170000e3
:020000040000fa
:04003800f0020000d2
:020000040000fa
:04003c00ce170000db
:020000040000fa
:04004000ce170000d7
:020000040000fa
:04004400f8020000be
:020000040000fa
:04004800ce170000cf
:020000040000fa
:04004c00ce170000cb
:020000040000fa
:04005000ce170000c7
:020000040000fa
:04005400761700001b
:020000040000fa
:04005800ce170000bf
:020000040000fa
:04005c00ce170000bb
:020000040000fa
:04006000ce170000b7
:020000040000fa
:04006400ce170000b3
:020000040000fa
:040068006e1700000f
:020000040000fa
:04006c005e1700001b
:020000040000fa
:04007000ce170000a7
:020000040000fa
:04007400ce170000a3
:020000040000fa
:04007800ce1700009f
:020000040000fa
:04007c00ce1700009b
:020000040000fa
:04008000ce17000097
:020000040000fa
:04008400ce17000093
:020000040000fa
:04008800ce1700008f
:020000040000fa
:04008c00ce1700008b
:020000040000fa
:04009000ce17000087
:020000040000fa
:04009400ce17000083
:020000040000fa
:04009800ce1700007f
:020000040000fa
:04009c00ce1700007b
:020000040000fa
:0400a000ce17000077
:020000040000fa
:0400a400ce17000073
:020000040000fa
:0400a800ce1700006f
:020000040000fa
:0400ac00ce1700006b
:020000040000fa
:0400b000ce17000067
:020000040000fa
:0400b400ce17000063
:020000040000fa
:0400b800ce1700005f
:020000040000fa
:0400bc00ce1700005b
:020000040000fa
:0400c000ce17000057
:020000040000fa
:0400c400ce17000053
:020000040000fa
:0400c800ce1700004f
:020000040000fa
:0400cc00ce1700004b
:020000040000fa
:0400d000ce17000047
:020000040000fa
:0400d400ce17000043
:020000040000fa
:0400d800ce1700003f
:020000040000fa
:0400dc00ce1700003b
:020000040000fa
:0400e000ce17000037
:020000040000fa
:0400e400ce17000033
:020000040000fa
:0400e800ce1700002f
:020000040000fa
:0400ec00ce1700002b
:020000040000fa
:0400f000ce17000027
:020000040000fa
:0400f400ce17000023
:020000040000fa
:0400f800ce1700001f
:020000040000fa
:0400fc00ce1700001b
:020000040000fa
:04010000ce17000016
:020000040000fa
:04010400ce17000012
:020000040000fa
:04010800ce1700000e
:020000040000fa
:04010c00ce1700000a
:020000040000fa
:04011000ce17000006
:020000040000fa
:04011400ce17000002
:020000040000fa
:04011800ce170000fe
:020000040000fa
:04011c00ce170000fa
:020000040000fa
:04012000ce170000f6
:020000040000fa
:04012400ce170000f2
:020000040000fa
:04012800ce170000ee
:020000040000fa
:04012c00ce170000ea
:020000040000fa
:04013000ce170000e6
:020000040000fa
:04013400ce170000e2
:020000040000fa
:04013800ce170000de
:020000040000fa
:04013c00ce170000da
:020000040000fa
:04014000ce170000d6
:020000040000fa
:04014400ce170000d2
:020000040000fa
:04020800ce1700000d
:020000040000fa
:04020c00ce17000009
:020000040000fa
:04021000ce17000005
:020000040000fa
:04021400ce17000001
:020000040000fa
:04021800ce170000fd
:020000040000fa
:04021c00ce170000f9
:020000040000fa
:04022000ce170000f5
:020000040000fa
:04022400ce170000f1
:020000040000fa
:04022800ce170000ed
:020000040000fa
:04022c00ce170000e9
:020000040000fa
:04023000ce170000e5
:020000040000fa
:04023400ce170000e1
:020000040000fa
:04023800f0020000d0
:020000040000fa
:04023c00ce170000d9
:020000040000fa
:04024000ce170000d5
:020000040000fa
:04024400f8020000bc
:020000040000fa
:04024800ce170000cd
:020000040000fa
:04024c00ce170000c9
:020000040000fa
:04025000ce170000c5
:020000040000fa
:040254007617000019
:020000040000fa
:04025800ce170000bd
:020000040000fa
:04025c00ce170000b9
:020000040000fa
:04026000ce170000b5
:020000040000fa
:04026400ce170000b1
:020000040000fa
:040268006e1700000d
:020000040000fa
:04026c005e17000019
:020000040000fa
:04027000ce170000a5
:020000040000fa
:04027400ce170000a1
:020000040000fa
:04027800ce1700009d
:020000040000fa
:04027c00ce17000099
:020000040000fa
:04028000ce17000095
:020000040000fa
:04028400ce17000091
:020000040000fa
:04028800ce1700008d
:020000040000fa
:04028c00ce17000089
:020000040000fa
:04029000ce17000085
:020000040000fa
:04029400ce17000081
:020000040000fa
:04029800ce1700007d
:020000040000fa
:04029c00ce17000079
:020000040000fa
:0402a000ce17000075
:020000040000fa
:0402a400ce17000071
:020000040000fa
:0402a800ce1700006d
:020000040000fa
:0402ac00ce17000069
:020000040000fa
:0402b000ce17000065
:020000040000fa
:0402b400ce17000061
:020000040000fa
:0402b800ce1700005d
:020000040000fa
:0402bc00ce17000059
:020000040000fa
:0402c000ce17000055
:020000040000fa
:0402c400ce17000051
:020000040000fa
:0402c800ce1700004d
:020000040000fa
:0402cc00ce17000049
:020000040000fa
:0402d000ce17000045
:020000040000fa
:0402d400ce17000041
:020000040000fa
:0402d800ce1700003d
:020000040000fa
:0402dc00ce17000039
:020000040000fa
:0402e000ce17000035
:020000040000fa
:0402e400ce17000031
:020000040000fa
:0402e800ce1700002d
:020000040000fa
:0402ec00ce17000029
:020000040000fa
:0402f000ce17000025
:020000040000fa
:0402f400ce17000021
:020000040000fa
:0402f800ce1700001d
:020000040000fa
:0402fc00ce17000019
:020000040000fa
:04030000ce17000014
:020000040000fa
:04030400ce17000010
:020000040000fa
:04030800ce1700000c
:020000040000fa
:04030c00ce17000008
:020000040000fa
:04031000ce17000004
:020000040000fa
:04031400ce17000000
:020000040000fa
:04031800ce170000fc
:020000040000fa
:04031c00ce170000f8
:020000040000fa
:04032000ce170000f4
:020000040000fa
:04032400ce170000f0
:020000040000fa
:04032800ce170000ec
:020000040000fa
:04032c00ce170000e8
:020000040000fa
:04033000ce170000e4
:020000040000fa
:04033400ce170000e0
:020000040000fa
:04033800ce170000dc
:020000040000fa
:04033c00ce170000d8
:020000040000fa
:04034000ce170000d4
:020000040000fa
:04034400ce170000d0
:020000040000fa
:100400004fcf2000eef627000e018800000000000c
:10041000000020000000e000020032000001200087
:1004200020028800140007009b0b07000000e0007a
:1004300003003a00a0062600010020000200370059
:100440000000200001002000810f70000100320038
:1004500014000700000020000000e000020032004d
:1004600000000200000000004059020000000000ef
:100470000040da000000fe004440a900a036200041
:100480000000e0000300320000002000a00188000e
:100490004440a800000006008a1f78008b1f7800e7
:1004a0000000060091018800800478000000eb0045
:1004b0001a003700e284440032a0b4009905ba0063
:1004c000e284440032a0b4009906ba00e2844400f9
:1004d00032a0b4000006eb00476fde00fd07b2005b
:1004e000636ce10003003a00ebff07000000eb0043
:1004f0000a003700606ce10004003a00005deb0088
:100500008b05e900fdff3e00040037006168e10053
:10051000010032000086eb000b00070019c7ba008b
:100520001905ba000e04e00003003a000a00e000da
:10053000e0ff3a0000000600fe07b2009e018800be
:100540008a047800f5ff3700395dba008b05e900b1
:100550000c003200295dba008b05e900080032006a
:100560000c00e00003003a00e284440032a0b40032
:10057000f5ff370019ddba008b05e900faff3a00f4
:100580008904e800e184440032a0b40000000600c1
:100590005a560400000000008456040000000000c9
:1005a000fe330400000000009c2604000000000050
:1005b000f240040000000000582604000000000083
:1005c00042410400000000005e4004000000000002
:1005d00000000400000000009c2604000000000051
:1005e0000000fa008480a9000080fa0000400600a4
:1005f0003600f800809fbe00829fbe00849fbe0030
:10060000869fbe00889fbe000200fa00d0168000c0
:100610004900de00614060000080fb006100600076
:1006200000004000511680000110a1000100700080
:10063000501688002046800031468000610040004e
:10064000e08048002046880031468800c8c8bf00c6
:100650000040e800c8e8b700818c20009140780095
:1006600080ccb30080cf50000d003a00b01680005f
:100670004c00de00614060000004a20061406000a8
:100680000080fb00610060004c00dd00b1168000be
:1006900001c0a10001007000b0168800c868ef001a
:1006a00014c9bf000004e000010032000000fe0099
:1006b0002246800033468000f0ff2f00f10f20001b
:1006c000800f5100818f590004003a001000200073
:1006d0000100200020468800314688004117800034
:1006e00000042000008060000000e00001003200f3
:1006f0001533070011168000000220000080600002
:100700000000e00002003a00410020000100370034
:100710008000eb0010168000700060000000e00018
:1007200002003a0020002000010037000000eb002a
:1007300081007000101680006800600000f0a700c3
:100740000000ea000000e9004f00de000100700038
:10075000a046880081468000a0468000808f50001f
:10076000040032009046800080468800a046800049
:1007700090468800b0468000e20f500071013600bc
:1007800020468000314680005200200003002000f7
:100790001c0b0700e00f5000e08f580069013a0081
:1007a000edc8bf000080fb0000f0a7000000ea00d9
:1007b0000000ea004f00de000040780020e8b700ab
:1007c000a24080007144800010c0b300810f51002e
:1007d000010036000040eb001fe8b70030c8bf0042
:1007e0000080fb0000f0a7000000ea000000ea0023
:1007f0004f00de000040780021e8b70031c8bf009c
:100800000080fb0000f0a7000000ea000000ea0002
:100810004f00de00004078002ce8b70082408000e6
:100820007144800010c0b300810f510001003600f8
:100830000040eb0022e8b70009c9bf000080fb00c0
:1008400000f0a7000000ea000000ea004f00de0010
:100850000040780024e8b700924080007144800096
:1008600010c0b300810f5100010036000040eb00c2
:1008700023e8b700111680000020200000806000ef
:100880000000e00007003a00111680000040200040
:10089000008060000000e000020032001000200034
:1008a000010037000000eb000040780025e8b700a9
:1008b0001116800000402000008060000000e00071
:1008c00007003a0011168000002020000080600020
:1008d0000000e00002003a00100020000100370094
:1008e0000000eb000040780026e8b70000c9bf0018
:1008f0000080fb0000f0a7000000ea000000ea0012
:100900004f00de000040780027e8b700d0168000d6
:100910006800600000f0a7000000ea000000e900a5
:100920004f00de000040780028e8b700014080005a
:10093000f0ff20000080600000408800a14080009f
:10094000f0ff200000806000a040880091408000ff
:10095000f0ff20000080600090408800514080003f
:10096000f0ff2000008060005040880011408000af
:10097000f0ff20000080600010408800814080006f
:10098000f0ff2000008060008040880071408000ff
:10099000f0ff20000080600070408800818c200003
:1009a0009140780030c6b30080cf5000bc003600c4
:1009b000b116800000002100008060000000e0000f
:1009c0005c003a000000eb00000f780009003700df
:1009d0001e0078001f270700800078001e007800a6
:1009e0000001400060af20000000410001087800d5
:1009f0001e0fe8001e007800e30f5000f4ff3400e3
:100a0000004080008000eb00670a0700a2992900df
:100a100093f123004b0c07000004be00b057800088
:100a20008000eb00600a0700c2cc2c00c3ec23005e
:100a3000440c07000001be000800be007d0a07004c
:100a40003b0a07000000780000408800a0408000ba
:100a50008000eb00540a0700a299290093f12300bb
:100a6000380c07000004be00c05780008000eb0077
:100a70004d0a0700c2cc2c00c3ec2300310c070048
:100a80000001be000800be006a0a0700280a07002d
:100a900000007800a0408800904080008000eb00bb
:100aa000410a0700a299290093f12300250c0700b1
:100ab0000004be00d05780008000eb003a0a070017
:100ac000c2cc2c00c3ec23001e0c07000001be00aa
:100ad0000800be00570a0700150a0700000078004a
:100ae00090408800504080008000eb002e0a0700f4
:100af000a299290093f12300120c07000004be0004
:100b0000e05780008000eb00270a0700c2cc2c00d1
:100b1000c3ec23000b0c07000001be000800be0060
:100b2000440a0700020a07000000780050408800cd
:100b30005b0037000000eb00000f78000900370071
:100b40009e007800648440001e007800c1260700e3
:100b50000801440061af2000810041008008780056
:100b60001e0fe8001e007800e30f5000f4ff340071
:100b7000004080008000eb000b0a0700a2992900ca
:100b800093f12300ef0b07000004be00f057800034
:100b90008000eb00040a0700c2cc2c00c3ec230049
:100ba000e80b07000001be000800be00210a070094
:100bb000df09070000007800004088001040800036
:100bc0008000eb00f8090700a299290093f12300a7
:100bd000dc0b07000004be00005880008000eb0022
:100be000f1090700c2cc2c00c3ec2300d50b070091
:100bf0000001be000800be000e0a0700cc09070075
:100c00000000780010408800804080008000eb00e9
:100c1000e5090700a299290093f12300c90b0700f9
:100c20000004be00105880008000eb00de090700c1
:100c3000c2cc2c00c3ec2300c20b07000001be0095
:100c40000800be00fb090700b90907000000780092
:100c500080408800704080008000eb00d2090700cf
:100c6000a299290093f12300b60b07000004be00ef
:100c7000205880008000eb00cb090700c2cc2c007c
:100c8000c3ec2300af0b07000001be000800be004c
:100c9000e8090700a60907000000780070408800f6
:100ca000004080008000eb00bf0907000002be008a
:100cb000f04480000145800018c0b3000001be0070
:100cc0000400be00770907000000e00001003d00bd
:100cd0000044eb0088407800128e20000149780023
:100ce000004080008000eb00af0907000002be005a
:100cf000104580002145800018c0b3000001be00ef
:100d00000400be00650907000000e0000100350096
:100d10000044eb0088407800228e200001497800d2
:100d2000d1168000000420000080600000f0a700c1
:100d30000000ea000000e9004f00de0000407800fb
:100d4000e0e8b700b0468000e20f500061003200da
:100d5000e20f500005003e000000e0000a003200f3
:100d6000e10f5000370032004b083700e40f50000d
:100d7000c9003200e40f500060003900e50f500058
:100d80003701320044083700b04680000000e00020
:100d90002c083a0020468000314680009201200055
:100da0000300200097090700e00f5000e08f580073
:100db00026083a009145800050458000808f500001
:100dc00013003200111c8000000028000080600029
:100dd0000000e0000e003a005145800040458000d0
:100de000811f7800801f780010002000801f78008d
:100df00040a42c00801f7800409c2000800d07003c
:100e0000e8875700409c2000622607003126070033
:100e10009145800050458000808f50000d083a00b9
:100e2000b228ef000080eb0030458800d828ef00a2
:100e30001000200001002000204688003146880074
:100e400015083700b0468000e10f500003083a0053
:100e500020468000314680009201200003002000df
:100e600068090700e00f5000e08f5800fd073a00c6
:100e7000c04680000000e00001003200140037008e
:100e80008145800010032000808f50000300320055
:100e900040a52c00192607000e260700814580007a
:100ea00010032000808f500008003a00100020003e
:100eb000c04688000080eb0030458800100020000c
:100ec0000100200020468800314688000000000014
:100ed000f10737008145800030458000808f500049
:100ee000060032000002eb008001eb000001eb0085
:100ef000c0ed200051062000fa2f0700b046800008
:100f0000e30f5000d9073a0010c0b30030e8b70033
:100f100010c0b30029e8b7002a68ef002b68ef0083
:100f20002cc8bf000080fb00cd00dd0029c8bf0039
:100f30000080fb004a00dd00810070002ac8bf006d
:100f40000080fb004b00dd00810070002bc8bf005b
:100f50000080fb004c00dd008100700028c8bf004d
:100f60000080fb004900dd008100700027c8bf0041
:100f70000080fb004800dd008100700026c8bf0033
:100f80000080fb004700dd008100700025c8bf0025
:100f90000080fb004600dd008100700024c8bf0017
:100fa0000080fb004500dd008100700023c8bf0009
:100fb0000080fb004400dd008100700022c8bf00fb
:100fc0000080fb004300dd008100700021c8bf00ed
:100fd0000080fb004200dd008100700020c8bf00df
:100fe0000080fb0000004000810070001fc8bf00af
:100ff0000080fb000100700070418800c046800046
:101000000000e00021003a0081458000304580006a
:10101000808f50000e003200204680003146800054
:101020009201200003002000f6080700e00f5000a6
:10103000e08f580006003a000002eb001300200089
:10104000021020001032200051062000a52f0700ba
:101050008145800030458000808f50000a003a00b2
:101060000080eb00304588001000200001002000c7
:10107000204688003146880010002000c0468800c5
:1010800040002000b046880002003700ca22a900b4
:101090000000000080073700b0468000e40f5000d9
:1010a00074073a0080468000e60f500006003a00c0
:1010b000904680000000e00003003a00d028ef00d6
:1010c000d828ef00d628ef00204680003146800067
:1010d000a20f200003002000ca080700e00f500004
:1010e000e08f58003d003a002cc8bf000080fb0094
:1010f000cd00dd0029c8bf000080fb004a00dd00f4
:10110000810070002ac8bf000080fb004b00dd009a
:10111000810070002bc8bf000080fb004c00dd0088
:101120008100700028c8bf000080fb004900dd007e
:101130008100700027c8bf000080fb004800dd0070
:101140008100700026c8bf000080fb004700dd0062
:101150008100700025c8bf000080fb004600dd0054
:101160008100700024c8bf000080fb004500dd0046
:101170008100700023c8bf000080fb004400dd0038
:101180008100700022c8bf000080fb004300dd002a
:101190008100700021c8bf000080fb004200dd001c
:1011a0008100700020c8bf000080fb0000004000ec
:1011b000810070001fc8bf000080fb0001007000ac
:1011c000704188000002eb00130020000210200094
:1011d0001032200051062000422f07008046800078
:1011e000e50f50000a003a00904680000000e00041
:1011f00007003a00d028ef000002eb0013002000a7
:10120000021020001032200051062000352f070068
:1012100080468000e30f500018073a009046800097
:101220000000e00017073a00d028ef00d228ef00b6
:1012300050002000b046880020002000e0468800d2
:101240001000200001002000204688003146880060
:10125000d828ef000c29ef000f69ef000e073700c8
:10126000b0468000e50f500008073a006048800053
:101270000000e0000900320060488000e10f5000eb
:101280000600320060488000e20f50000300320088
:1012900060488000e30f500004003a002968ef0026
:1012a00010c0b3002ae8b7002b68ef002cc8bf00bd
:1012b0000080fb00cd00dd0029c8bf000080fb00de
:1012c0004a00dd00810070002ac8bf000080fb00da
:1012d0004b00dd00810070002bc8bf000080fb00c8
:1012e0004c00dd008100700028c8bf000080fb00ba
:1012f0004900dd008100700027c8bf000080fb00ae
:101300004800dd008100700026c8bf000080fb009f
:101310004700dd008100700025c8bf000080fb0091
:101320004600dd008100700024c8bf000080fb0083
:101330004500dd008100700023c8bf000080fb0075
:101340004400dd008100700022c8bf000080fb0067
:101350004300dd008100700021c8bf000080fb0059
:101360004200dd008100700020c8bf000080fb004b
:1013700000004000810070001fc8bf000080fb001b
:101380000100700070418800dac8bf000004e0006e
:1013900023003200c0468000e10f50001d003a00db
:1013a0008145800030458000808f50000e00320063
:1013b00020468000314680004201200003002000ca
:1013c00010080700e00f5000e08f580006003a00b8
:1013d0000002eb008001eb0022322000c0ed200073
:1013e00051062000bf2e0700814580003045800057
:1013f000808f500009003a000080eb0030458800e3
:10140000c428ef00c628ef0020002000c046880056
:10141000030037000000000001003700000000005a
:10142000dac8bf000004e0002600320080468000d9
:10143000e60f500023003a00904680000000e000d4
:1014400020003a00d228ef00d028ef00da68ef0041
:10145000dc28ef0030002000b0468800c428ef00f0
:10146000c628ef00d828ef000f69ef000c29ef0025
:101470000080eb0030458800de28ef00ec68ef00cc
:10148000a92f0700ed68ef00e868ef00e768ef00bc
:10149000ca42a800ec68ef000969ef000569ef0097
:1014a0000469ef00c4e2a800fc68ef00fd68ef00eb
:1014b000f868ef000069ef00f768ef00c4c2a80009
:1014c0007506370080468000e60f50001a003a008b
:1014d000904680000000e00017003a00dac8bf0024
:1014e0000004a2000004e00013003200f046800077
:1014f0000000e00010003a00e5c8bf000004a200b0
:101500000004e0000c00320002c9bf000004a20089
:101510000004e00008003200f5c8bf000004a2008b
:101520000004e00004003200d228ef0010c0b30035
:10153000dae8b7000f69ef0080468000e60f500040
:101540000c003a00904680000000e00009003a00dc
:10155000dac8bf000004a2000004e0000500320069
:10156000f0468000e10f500002003a0010c0b300c6
:10157000efe8b70080468000e60f50000c003a000c
:10158000904680000000e00009003a00dac8bf0081
:101590000004a2000004e00005003200f0468000d4
:1015a000e30f500002003a0010c0b3000be9b7008f
:1015b00080468000e60f50000c003a009046800004
:1015c0000000e00009003a00dac8bf000004a200f1
:1015d0000004e00005003200f0468000e20f5000f9
:1015e00002003a0010c0b300ffe8b700dac8bf003d
:1015f0000004a2000004e00026003200c046800083
:101600000000e00020003a00814580003045800065
:10161000808f50000e00320020468000314680004e
:10162000420120000300200076070700e00f500071
:10163000e08f580006003a000002eb008001eb004a
:1016400002302000c0ed200051062000252e0700aa
:101650008145800030458000808f50000c003a00aa
:101660000080eb00304588000c29ef0010002000be
:10167000f048880010002000c046880010c0b30069
:101680000fe9b70003003700000000000100370039
:1016900000000000edc8bf000080fb00c200dd00bc
:1016a000fdc8bf000080fb0000004000810070000a
:1016b00009c9bf000080fb0001007000604888007d
:1016c0000fc9bf000004e000200432002046800063
:1016d0003146800022032000030020004907070054
:1016e000e00f5000e08f580018043a006148800075
:1016f000f0488000808f5000230032006048800056
:101700000000e00020003a00e5c8bf000004a2008d
:101710000004e0001c00320002c9bf000004a20067
:101720000004e00018003200f5c8bf000004a20069
:101730000004e000140032002c68ef002168ef0084
:101740008145800030458000808f500006003200c7
:101750000002eb008001eb0032332000c0ed2000de
:1017600051062000df2d07008145800030458000b4
:10177000808f500004003a000080eb003045880064
:1017800060488000f048880061488000f048800090
:10179000808f50002400320060488000e10f50002c
:1017a00021003a00e5c8bf000004a2000004e000e8
:1017b0001d00320002c9bf000004a2000004e000c6
:1017c00019003200f5c8bf000004a2000004e000c8
:1017d000150032002c68ef0010c0b30021e8b700fc
:1017e0008145800030458000808f50000600320027
:1017f0000002eb008001eb0002302000c0bd2000a1
:1018000051062000b72d070081458000304580003b
:10181000808f500004003a000080eb0030458800c3
:1018200060488000f048880061488000f0488000ef
:10183000808f50002400320060488000e20f50008a
:1018400021003a00e5c8bf000004a2000004e00047
:101850001d00320002c9bf000004a2000004e00025
:1018600019003200f5c8bf000004a2000004e00027
:10187000150032002c68ef0010c0b30021e8b7005b
:101880008145800030458000808f50000600320086
:101890000002eb008001eb0002302000c0ea2000d3
:1018a000510620008f2d07008145800030458000c3
:1018b000808f500004003a000080eb003045880023
:1018c00060488000f048880061488000f04880004f
:1018d000808f50002400320060488000e30f5000e9
:1018e00021003a00e5c8bf000004a2000004e000a7
:1018f0001d00320002c9bf000004a2000004e00085
:1019000019003200f5c8bf000004a2000004e00086
:10191000150032002c68ef0010c0b30021e8b700ba
:101920008145800030458000808f500006003200e5
:101930000002eb008001eb0002302000c0ba200062
:1019400051062000672d070081458000304580004a
:10195000808f500004003a000080eb003045880082
:1019600060488000f048880061488000f0488000ae
:10197000808f50002400320060488000e40f500047
:1019800021003a00e5c8bf000004a2000004e00006
:101990001d00320002c9bf000004a2000004e000e4
:1019a00019003200f5c8bf000004a2000004e000e6
:1019b000150032002c68ef0010c0b30021e8b7001a
:1019c0008145800030458000808f50000600320045
:1019d0000002eb008001eb005235200090ed20006a
:1019e000510620003f2d07008145800030458000d2
:1019f000808f500004003a000080eb0030458800e2
:101a000060488000f048880061488000f04880000d
:101a1000808f50002400320060488000e50f5000a5
:101a200021003a00e5c8bf000004a2000004e00065
:101a30001d00320002c9bf000004a2000004e00043
:101a400019003200f5c8bf000004a2000004e00045
:101a5000150032002c68ef0010c0b30021e8b70079
:101a60008145800030458000808f500006003200a4
:101a70000002eb008001eb000230200090bd20004e
:101a800051062000172d0700814580003045800059
:101a9000808f500004003a000080eb003045880041
:101aa00060488000f048880061488000f04880006d
:101ab000808f50002400320060488000e60f500004
:101ac00021003a00e5c8bf000004a2000004e000c5
:101ad0001d00320002c9bf000004a2000004e000a3
:101ae00019003200f5c8bf000004a2000004e000a5
:101af000150032002c68ef0010c0b30021e8b700d9
:101b00008145800030458000808f50000600320003
:101b10000002eb008001eb000230200090ea200080
:101b200051062000ef2c07008145800030458000e1
:101b3000808f500004003a000080eb0030458800a0
:101b400060488000f048880061488000f0488000cc
:101b5000808f50002400320060488000e70f500062
:101b600021003a00e5c8bf000004a2000004e00024
:101b70001d00320002c9bf000004a2000004e00002
:101b800019003200f5c8bf000004a2000004e00004
:101b9000150032002c68ef0010c0b30021e8b70038
:101ba0008145800030458000808f50000600320063
:101bb0000002eb008001eb000230200090ba200010
:101bc00051062000c72c0700814580003045800069
:101bd000808f500004003a000080eb003045880000
:101be00060488000f0488800604880000000e00005
:101bf0000900320060488000e10f5000060032000a
:101c000060488000e20f500003003200604880000e
:101c1000e30f50005b003a00e3c8bf000004a200dd
:101c20000004e00057003200e5c8bf000004e000f7
:101c30005400320002c9bf000004a2000004e0000a
:101c400050003200f5c8bf000004a2000004e0000c
:101c50004c00320010c0b3002ce8b7002168ef0040
:101c60002cc8bf000080fb00cd00dd0029c8bf00ec
:101c70000080fb004a00dd00810070002ac8bf0020
:101c80000080fb004b00dd00810070002bc8bf000e
:101c90000080fb004c00dd008100700028c8bf0000
:101ca0000080fb004900dd008100700027c8bf00f4
:101cb0000080fb004800dd008100700026c8bf00e6
:101cc0000080fb004700dd008100700025c8bf00d8
:101cd0000080fb004600dd008100700024c8bf00ca
:101ce0000080fb004500dd008100700023c8bf00bc
:101cf0000080fb004400dd008100700022c8bf00ae
:101d00000080fb004300dd008100700021c8bf009f
:101d10000080fb004200dd008100700020c8bf0091
:101d20000080fb0000004000810070001fc8bf0061
:101d30000080fb0001007000704188008145800038
:101d400030458000808f5000060032000002eb001a
:101d50008001eb007236200000002f0001062000f9
:101d6000602c07008145800030458000808f500046
:101d700004003a000080eb00304588006048800095
:101d8000f0488800604880000000e0000900320050
:101d900060488000e10f500006003200604880007b
:101da000e20f50000300320060488000e30f500053
:101db0005f003a00e4c8bf000004a2000004e00095
:101dc0005b003200e5c8bf000004e00058003200ac
:101dd000e3c8bf000004e0005500320002c9bf00a4
:101de0000004a2000004e00051003200f5c8bf006a
:101df0000004a2000004e0004d00320010c0b30057
:101e00002ce8b7002168ef002cc8bf000080fb0061
:101e1000cd00dd0029c8bf000080fb004a00dd00c6
:101e2000810070002ac8bf000080fb004b00dd006d
:101e3000810070002bc8bf000080fb004c00dd005b
:101e40008100700028c8bf000080fb004900dd0051
:101e50008100700027c8bf000080fb004800dd0043
:101e60008100700026c8bf000080fb004700dd0035
:101e70008100700025c8bf000080fb004600dd0027
:101e80008100700024c8bf000080fb004500dd0019
:101e90008100700023c8bf000080fb004400dd000b
:101ea0008100700022c8bf000080fb004300dd00fd
:101eb0008100700021c8bf000080fb004200dd00ef
:101ec0008100700020c8bf000080fb0000004000bf
:101ed000810070001fc8bf000080fb00010070007f
:101ee000704188008145800030458000808f50001f
:101ef0000700320010428000000278008001eb00f1
:101f0000723620000000200001062000f52b07009b
:101f10008145800030458000808f500004003a00e9
:101f20000080eb003045880060488000f048880061
:101f3000604880000000e000090032006048800036
:101f4000e10f50000600320060488000e20f5000b0
:101f50000300320060488000e30f50005f003a0049
:101f6000e4c8bf000004e0005c003200e3c8bf002a
:101f70000004a2000004e00058003200e5c8bf00e1
:101f80000004e0005500320002c9bf000004a200b6
:101f90000004e00051003200f5c8bf000004a200b8
:101fa0000004e0004d00320010c0b3002ce8b70080
:101fb0002168ef002cc8bf000080fb00cd00dd00d1
:101fc00029c8bf000080fb004a00dd0081007000ce
:101fd0002ac8bf000080fb004b00dd0081007000bc
:101fe0002bc8bf000080fb004c00dd0081007000aa
:101ff00028c8bf000080fb004900dd0081007000a0
:1020000027c8bf000080fb004800dd008100700091
:1020100026c8bf000080fb004700dd008100700083
:1020200025c8bf000080fb004600dd008100700075
:1020300024c8bf000080fb004500dd008100700067
:1020400023c8bf000080fb004400dd008100700059
:1020500022c8bf000080fb004300dd00810070004b
:1020600021c8bf000080fb004200dd00810070003d
:1020700020c8bf000080fb0000004000810070000d
:102080001fc8bf000080fb00010070007041880085
:102090008145800030458000808f5000070032006d
:1020a00010428000000278008001eb0072362000b0
:1020b00000002000010620008a2b070081458000d7
:1020c00030458000808f500004003a000080eb0013
:1020d0003045880060488000f048880060488000f3
:1020e0000000e0000900320060488000e20f50006c
:1020f0000600320060488000e40f50000300320008
:1021000060488000e60f50005b003a0001c9bf0044
:102110000004a2000004e0005700320002c9bf0022
:102120000004e00054003200e5c8bf000004a20033
:102130000004e00050003200f5c8bf000004a20017
:102140000004e0004c00320010c0b3002ce8b700df
:102150002168ef002cc8bf000080fb00cd00dd002f
:1021600029c8bf000080fb004a00dd00810070002c
:102170002ac8bf000080fb004b00dd00810070001a
:102180002bc8bf000080fb004c00dd008100700008
:1021900028c8bf000080fb004900dd0081007000fe
:1021a00027c8bf000080fb004800dd0081007000f0
:1021b00026c8bf000080fb004700dd0081007000e2
:1021c00025c8bf000080fb004600dd0081007000d4
:1021d00024c8bf000080fb004500dd0081007000c6
:1021e00023c8bf000080fb004400dd0081007000b8
:1021f00022c8bf000080fb004300dd0081007000aa
:1022000021c8bf000080fb004200dd00810070009b
:1022100020c8bf000080fb0000004000810070006b
:102220001fc8bf000080fb000100700070418800e3
:102230008145800030458000808f500006003200cc
:102240000002eb008001eb008236200000002f002e
:1022500001062000232b07008145800030458000c7
:10226000808f500004003a000080eb003045880069
:1022700060488000f0488800604880000000e0006e
:102280000900320060488000e20f50000600320072
:1022900060488000e40f5000030032006048800076
:1022a000e60f50005b003a0001c9bf000004e000e7
:1022b0005800320002c9bf000004e000550032009f
:1022c000e5c8bf000004a2000004e0005100320095
:1022d000f5c8bf000004a2000004e0004d00320079
:1022e00010c0b3002ce8b7002168ef002cc8bf0075
:1022f0000080fb00cd00dd0029c8bf000080fb008e
:102300004a00dd00810070002ac8bf000080fb0089
:102310004b00dd00810070002bc8bf000080fb0077
:102320004c00dd008100700028c8bf000080fb0069
:102330004900dd008100700027c8bf000080fb005d
:102340004800dd008100700026c8bf000080fb004f
:102350004700dd008100700025c8bf000080fb0041
:102360004600dd008100700024c8bf000080fb0033
:102370004500dd008100700023c8bf000080fb0025
:102380004400dd008100700022c8bf000080fb0017
:102390004300dd008100700021c8bf000080fb0009
:1023a0004200dd008100700020c8bf000080fb00fb
:1023b00000004000810070001fc8bf000080fb00cb
:1023c0000100700070418800814580003045800028
:1023d000808f500007003200104280000002780019
:1023e0008001eb0082362000000020000106200062
:1023f000bc2a07008145800030458000808f500056
:1024000004003a000080eb003045880060488000fe
:10241000f0488800604880000000e00009003200b9
:1024200060488000e20f50000600320060488000e3
:10243000e40f50000300320060488000e60f5000b7
:102440005b003a00f5c8bf000004e000580032000d
:10245000f4c8bf000004a2000004e00054003200f1
:1024600002c9bf000004a2000004e00050003200d6
:10247000e5c8bf000004a2000004e0004c003200e8
:1024800010c0b3002ce8b7002168ef002cc8bf00d3
:102490000080fb00cd00dd0029c8bf000080fb00ec
:1024a0004a00dd00810070002ac8bf000080fb00e8
:1024b0004b00dd00810070002bc8bf000080fb00d6
:1024c0004c00dd008100700028c8bf000080fb00c8
:1024d0004900dd008100700027c8bf000080fb00bc
:1024e0004800dd008100700026c8bf000080fb00ae
:1024f0004700dd008100700025c8bf000080fb00a0
:102500004600dd008100700024c8bf000080fb0091
:102510004500dd008100700023c8bf000080fb0083
:102520004400dd008100700022c8bf000080fb0075
:102530004300dd008100700021c8bf000080fb0067
:102540004200dd008100700020c8bf000080fb0059
:1025500000004000810070001fc8bf000080fb0029
:102560000100700070418800814580003045800086
:10257000808f5000060032000002eb008001eb006b
:102580009236200000002f0001062000552a070087
:102590008145800030458000808f500004003a0063
:1025a0000080eb003045880060488000f0488800db
:1025b000604880000000e0000900320060488000b0
:1025c000e20f50000600320060488000e40f500027
:1025d0000300320060488000e60f50005b003a00c4
:1025e000f5c8bf000004e00058003200f4c8bf0086
:1025f0000004e0005500320002c9bf000004a20040
:102600000004e00051003200e5c8bf000004a20051
:102610000004e0004d00320010c0b3002ce8b70009
:102620002168ef002cc8bf000080fb00cd00dd005a
:1026300029c8bf000080fb004a00dd008100700057
:102640002ac8bf000080fb004b00dd008100700045
:102650002bc8bf000080fb004c00dd008100700033
:1026600028c8bf000080fb004900dd008100700029
:1026700027c8bf000080fb004800dd00810070001b
:1026800026c8bf000080fb004700dd00810070000d
:1026900025c8bf000080fb004600dd0081007000ff
:1026a00024c8bf000080fb004500dd0081007000f1
:1026b00023c8bf000080fb004400dd0081007000e3
:1026c00022c8bf000080fb004300dd0081007000d5
:1026d00021c8bf000080fb004200dd0081007000c7
:1026e00020c8bf000080fb00000040008100700097
:1026f0001fc8bf000080fb0001007000704188000f
:102700008145800030458000808f500007003200f6
:1027100010428000000278008001eb009236200019
:102720000000200001062000ee29070081458000fe
:1027300030458000808f500004003a000080eb009c
:102740003045880060488000f0488800f0468000ee
:102750000000e0000f003a000fc9bf000004e000d5
:102760000c003200204680003146800042062000e6
:102770000300200023030700e00f5000e08f580003
:1027800004003a00a0002000f04888000080eb0020
:1027900030458800904680000000e00041003a008b
:1027a00080468000e50f50003e003a00e5c8bf00bb
:1027b0000004a2000004e0003a00320002c9bf0099
:1027c0000004a2000004e00036003200d028ef0030
:1027d000f04680000000e00017003a00e7c8bf00a4
:1027e0000004a2000004e00013003200f7c8bf009c
:1027f0000004a2000004e0000f00320004c9bf0082
:102800000004a2000004e0000b003200d028ef001a
:10281000d828ef000080eb0030458800c428ef0086
:10282000c628ef00a0002000f0488800da68ef001a
:1028300010c0b3000fe9b700f0468000e10f500070
:1028400006003a000fc9bf000004a2000004e00027
:102850000200320010c0b300eee8b700f04680007e
:10286000e30f500006003a000fc9bf000004a200a9
:102870000004e0000200320010c0b3000ae9b70013
:10288000f0468000e20f500006003a000fc9bf007a
:102890000004a2000004e0000200320010c0b300f7
:1028a000fee8b700904680000000e0001a003a0001
:1028b00080468000e10f500017003a00edc8bf00cd
:1028c0000004a2000004e00013003200e5c8bf00cd
:1028d0000004a2000004e0000f003200d1168000c6
:1028e00000022000008060000000e0000a003200ca
:1028f000d028ef0010002000f0468800e7c8bf0095
:102900000004e0000200320010c0b300e8e8b700a5
:1029100010c0b300e7e8b700904680000000e00078
:1029200012003a0080468000e10f50000f003a008c
:10293000edc8bf000004e0000c003200e5c8bf0095
:102940000004a2000004e00008003200d028ef00dc
:10295000ec68ef00742a0700ed68ef00e868ef000c
:10296000e768ef00ca42a800de28ef00a14380001c
:10297000b043800080804000c043800080804000e1
:1029800000428000808f500008003e00d028ef00f9
:10299000ec68ef00642a0700ed68ef00e868ef00dc
:1029a000e768ef00ca42a800de28ef0080468000fa
:1029b000e60f50000b003a00904680000000e00057
:1029c00008003a00e5c8bf000004e000050032003e
:1029d000e468ef00d028ef00e568ef00e368ef005f
:1029e0004228ef0080468000e40f500009003a00c2
:1029f000904680000000e00006003a00e5c8bf00f5
:102a00000004e00003003200d028ef0010c0b30043
:102a1000e3e8b700ecc8bf000004e0001200320099
:102a2000e1428000f042800080804000a0408000b1
:102a3000808f50000c003e0010c0b300e4e8b700e7
:102a4000400020001042880010c0b300e5e8b70045
:102a5000ec68ef00ed68ef00e868ef00e768ef0072
:102a6000ca42a800de28ef00ecc8bf000004e00066
:102a7000120032002968ef0010c0b3002ae8b70046
:102a80002b68ef00152a0700d04380006e26070050
:102a9000d116800000022000008060000000e000ed
:102aa00006003200ec68ef00ed68ef00e868ef0028
:102ab000e768ef00ca42a800de28ef0090468000d9
:102ac0000000e0001a003a0080468000e30f50004a
:102ad00017003a0009c9bf000004a2000004e0008a
:102ae0001300320002c9bf000004a2000004e0008d
:102af0000f003200d116800000102000008060001e
:102b00000000e0000a003200d028ef003000200072
:102b1000f046880004c9bf000004e0000200320053
:102b200010c0b30005e9b70010c0b30004e9b70056
:102b3000904680000000e00011003a0080468000ce
:102b4000e30f50000e003a0009c9bf000004e00086
:102b50000b00320002c9bf000004a2000004e00024
:102b600007003200d028ef000869ef000969ef0084
:102b70000569ef000469ef00c4e2a800de28ef0059
:102b800080468000e60f50000a003a009046800020
:102b90000000e00007003a0002c9bf000004e000a6
:102ba00004003200d028ef000269ef000169ef0055
:102bb0004228ef0080468000e40f500009003a00f0
:102bc000904680000000e00006003a0002c9bf0005
:102bd0000004e00003003200d028ef0010c0b30072
:102be00001e9b70008c9bf000004e0000b00320093
:102bf000d116800000102000008060000000e0007e
:102c0000060032000869ef000969ef000569ef006e
:102c10000469ef00c4e2a800de28ef0090468000bf
:102c20000000e00011003a0080468000e30f5000f1
:102c30000e003a0009c9bf000004e0000b0032009a
:102c400002c9bf000004a2000004e0000700320037
:102c5000d028ef00ec68ef000969ef000569ef008c
:102c60000469ef00c4e2a800de28ef00904680006f
:102c70000000e00014003a0080468000e20f50009f
:102c800011003a00fdc8bf000004a2000004e000eb
:102c90000d003200f5c8bf000004a2000004e000ef
:102ca00009003200d0168000640060000000e000df
:102cb00005003a00d028ef0020002000f0468800f0
:102cc00010c0b300f7e8b700904680000000e000b5
:102cd00011003a0080468000e10f50000e003a00db
:102ce000f5c8bf000004a2000004e0000a003200a2
:102cf000f7c8bf000004e00007003200d0168000d3
:102d0000640060000000e00003003a00d028ef00fb
:102d100010c0b300f8e8b700d0168000640060006f
:102d20000000e00012003200111680000040200078
:102d3000008060000000e0000500320011168000f5
:102d400000202000008060000000e0000800320049
:102d5000c4c2a800fc68ef00fd68ef00f868ef004f
:102d6000f768ef00e922a900de28ef000069ef0014
:102d7000904680000000e00013003a00804680008a
:102d8000e20f500010003a00fdc8bf000004e00050
:102d90000d003200f5c8bf000004a2000004e000ee
:102da00009003200d028ef00fc68ef00fd68ef005a
:102db000f868ef00f768ef00c4c2a800e922a90094
:102dc000de28ef000069ef0080468000e60f50002b
:102dd0000a003a00904680000000e00007003a0038
:102de000f5c8bf000004e00004003200d028ef0066
:102df000f568ef00f468ef004228ef00804680009d
:102e0000e40f500009003a00904680000000e00006
:102e100006003a00e5c8bf000004e00003003200ed
:102e2000d028ef0010c0b300f4e8b700fcc8bf0022
:102e30000004e0001700320010c0b30000e9b70042
:102e400015003700000000001300370000000000ec
:102e500011003700000000000f00370000000000e4
:102e60000d003700000000000b00370000000000dc
:102e700009003700000000000700370000000000d4
:102e800005003700000000000300370000000000cc
:102e9000010037000000000084e0a9000080fa0073
:102ea0004f04be004f03be004f02be004f01be00e4
:102eb0004f00be003600f90000400600801f780079
:102ec0000000fa0010002000004988008620a900b8
:102ed0000080fa004f007800004006000000fa0071
:102ee0008600a9000080fa00004006003600f800c5
:102ef000809fbe00829fbe00849fbe00869fbe0052
:102f0000881f78000000fa0005003700584980004b
:102f1000d800070080407800e092200001707c001b
:102f2000d10007000004e000f8ff3a00504980009b
:102f3000e192200061407800ea4f50000400320026
:102f4000504980000000e800504988000500370023
:102f500050498000e19220000041eb00827078002f
:102f60002a29ef005149800060092000808f50001d
:102f700001003a002a29ef008560a9000080fa00cc
:102f80004f0478004f03be004f02be004f01be0049
:102f90004f00be003600f900004006000040da0095
:102fa0000000fe000a00fa000000e00037003a00ce
:102fb00083678000e18f510003003200e28f5100ef
:102fc0000e003a0009003700002220000000e00057
:102fd00001003a000040da002002e2000b00350058
:102fe0002822ef0021e2a80008003700002320007b
:102ff0000000e00001003a000040da003002e20088
:10300000020035003822ef0031e2a800020078000b
:103010001a003700040a2000e18f51000b003a002b
:10302000030037000402e90002003a000300370001
:10303000040a20002202ab00faff320014118000c3
:10304000050037000402e900020032003202ab0042
:10305000fcff32009411800061026200090032001e
:10306000e18f510002003a00341180000100370066
:10307000b4118000845878000000e9000000e000ee
:10308000e4ff3a0000005100080037002300200050
:10309000b3bf9f00c0bf9f00d1bf9f00e2bf9f0092
:1030a0006a805700b51507006fb897000080fa00d6
:1030b000000006000a00fa0011002000b1bf9f00c6
:1030c000c0bf9f006a805700ae1507004fb8970039
:1030d0000080fa00000006000a00fa00e20f50002b
:1030e00034003e0080678000e10f50000300320092
:1030f000e20f500011003a000c00370003222000bc
:103100000300e00001003a000040da002002e20083
:10311000020035002822ef0021e2a8002342ab0084
:103120000d003a002342a8000b00370003232000c3
:103130000300e00001003a000040da003002e20043
:10314000020035003822ef0031e2a8003342ab0024
:1031500001003a003342a800820178000b003700da
:103160003102fb00e10f500004003a002322ab00c3
:10317000feff3a0024118800030037003322ab0021
:10318000feff3a00a41188008301e9000300e0007b
:10319000f3ff3a00e10f500003003a002302ab00b6
:1031a000feff32000b0037003302ab00feff32009f
:1031b0000800370033002000b3bf9f00c0bf9f004e
:1031c000d1bf9f00e2bf9f006a8057006f150700c4
:1031d0006fb99700020078000080fa000000060036
:1031e000889fbe0080047800906780000000e000a7
:1031f00005003a000000eb000e0007000084eb0021
:103200000000e00008003500986780000900e00039
:103210000500320009004400060007000000e0003d
:1032200001003d000084eb00080078004f04be0060
:1032300000000600800078000100e00003003a0072
:103240000000200090678800000005000080eb006f
:1032500002002000828f500002003e00916788002b
:103260000000eb00000006001011800061406000cb
:10327000000006000011800066006000e60f5000ac
:1032800002003a003011800000000600301180007a
:10329000f00fb2000000060000000500140020003e
:1032a000b0033700f4ff2f00ae0337000001be006b
:1032b0003f0007000470a70003f0a1006509b100fa
:1032c000160032000d0035006828e10006003500c8
:1032d000f0ff2f00f1ff27000300e00013003b0088
:1032e0000100280000000500000040008180480027
:1032f0008502e900fcff3a0008003700f88f420021
:1033000002003c008000eb00000005008100d100bd
:103310000080d3008502e800fcff3a000300e000d3
:1033200002003b0060001000e08018000000060072
:103330000001be001e0007000470a70003f0a100fa
:1033400003f8a30013003a006509b1001000320031
:10335000090035006928e10002003500010028005d
:103360000000050000004000818048008502e9005f
:10337000fcff3a0000000600f88f4200050035000f
:103380008100d1000080d3008502e800fcff3a00f4
:10339000000006008000eb00000005004f89de0001
:1033a000820178008a0337006011b8009803370063
:1033b000c70ade00f107b200f50fb20008003200c4
:1033c000e1cf4200020032000170a000240005009d
:1033d000810f700001003200040805004400050060
:1033e000810f700002003a00140005008502e90018
:1033f0000000400081c04800fcff3b000170a000bd
:1034000024000500df0307000400be0000000600e2
:1034100007f82700078361000638e10004003a003e
:10342000f7072000878361008703710001003a00dd
:1034300003f0a200889fbe008a9fbe008c9fbe0042
:10344000470ade000480a100c71ade000580a10043
:10345000070028000785600087856100f70f2000be
:103460000720e1009e0032000728e1009c003200a6
:10347000010678000400e000b4003200f7072000e5
:10348000878060000170a0000500e000c0003200ed
:10349000f7072000878161000370a0000506520035
:1034a0000f003a000b50e1000b0032000308e1006e
:1034b00002003a000200e1007e00320002045000e7
:1034c00083845800040031000001fd008101fd00eb
:1034d0008402fd008a05fd006044b8002100370029
:1034e0000520e10005003d000001fd008101fd0017
:1034f0008402fd008a05fd00050652007a60e100a5
:10350000050035000170a1004722dd0084807000b5
:103510008a807000630037006044b800ef026600e4
:1035200007ff2f00070666000500e00006003400d4
:10353000f08312008714dd000511de00071bdd009b
:10354000060171008519de007060e100050035009c
:103550000904780082047800030178008001eb0000
:10356000700656000b50e10003003a0002004000d4
:10357000838048000400370060041400e0841c00cd
:1035800002005800838058000188a3000600320022
:103590008100d1000080d3008984d3000884d30047
:1035a0000402e800270037000178a30025003a0054
:1035b0000100e000030032008186cf0069865600da
:1035c0000a0037008c0020000000e00004003a00f0
:1035d00009007800880478000004eb0070025200b3
:1035e0008086cf000d0646000c06e9007060e10001
:1035f0000600350080007800090078008804780013
:103600000004eb0070065600700252000c00e0004f
:103610000c0034008c08dd00f00316000703de0008
:10362000868070000c00dd00074bde000600700095
:103630008c4cdd000743de00868474000c44dd0002
:103640000c0252006120e1002000350061016000a1
:103650000700280087816400f7ff27008783640044
:10366000070374000300e0000600320082037300c9
:10367000040032000000e800e08048000188a30058
:103680000e003a00f70f20000720e1004a003d003d
:103690000170a1004722dd00810072008a80700065
:1036a0000000be004f06be004f05be004f04be0026
:1036b000000006006000b800faff37008100d1006a
:1036c0000080d3000402e800eeff37000401780018
:1036d00089017400a10107008a807000f1ff3700a2
:1036e000f7010700070278000001fd008101fd00dd
:1036f000f301070087027800850372000778a300b2
:10370000040032000001fd008101fd0006020700f7
:10371000e4ff3700850362000768a3000800320059
:103720000b50e10003003200f0ff2f00f1ff2700f3
:10373000dcff37000001fd008101fd00d9ff3700eb
:103740000468a300d7ff3200faff3700f8ff270014
:10375000888360000b003a000000e00009003a0096
:103760008303640082837300020032000200be0003
:10377000ccff37000b50e100ceff3a000200be0044
:10378000c8ff370014002000810064003eff3700ae
:10379000f8ff27008883610004003a000200e0007f
:1037a00002003a008c007800beff370015002000b0
:1037b0008301640039ff370001f827000000200072
:1037c00081007500b7ff3700889fbe008a9fbe004a
:1037d0008c9fbe001b0020000202be000586680010
:1037e00006002800060666004709de00f20fb20058
:1037f000820032000243e80080003200c729de0068
:10380000f30fb2007d0032000343e8007b0032007a
:10381000f107b2000170a000f507b2000570a0002a
:10382000c708dd004903de00868070004700dd0028
:10383000c72add004923de00868272004722dd00b0
:103840000305510004035000858358000300310034
:1038500000004000818048000a05e9008c1f7800c4
:103860008a9fbe0004005000858058000402420078
:1038700085824a0000004000818048000005eb007e
:103880000004be006033b8000406be000d48e1002d
:1038900056003100110009004dccd8000c01b800d1
:1038a0000d02b8008481410060824a008283530087
:1038b00003045c0084845c0060055d000a00e00095
:1038c00025003a00800578000d40e10049003100f4
:1038d0008800780007007800110009004d88d800a2
:1038e0000c01b8000d02b8008481410060824a00da
:1038f0006003110083835b0004045c00e0845c00cf
:103900000900e00021003a004f01be000300e00082
:103910002b003200e3016000070673008c81710008
:1039200001003200640070004200de004e5edd00e7
:103930000c007000c258de0001e0a0008301070007
:10394000cf017800818071004f06be004f05be0098
:103950004f04be00000006008c8343000d044c00a1
:10396000e0844c0060054d000000e9000a00e00022
:10397000d4ff32008c8343000d044c00e0844c00e3
:1039800060054d000000e900ceff37000c03430046
:103990008d834b0060044c00e0844c000000e90083
:1039a0000900e000d8ff32000c0343008d834b0078
:1039b00060044c00e0844c000000e900d2ff3700b6
:1039c0004200de004e5edd000c007000c258de00da
:1039d00001e0a000cf0178000300e000daff320030
:1039e00060001000e0801800d7ff3700f0ff2f00c4
:1039f000aaff3700f0ff2f00b9ff37000404be0014
:103a00002f010700870678000004fd008104fd00f7
:103a10002b010700078366000678a300030032002d
:103a20000960a7000800be002c0037000d78a30035
:103a3000020032000800be00280037000778a3000b
:103a400026003a0001f0a10009f0a1000668a300d9
:103a500003003200f1ff2700f0ff2f00baff37000c
:103a60000d68a300030032000800be008c807000c7
:103a7000b5ff37000768a30007003a000648a30017
:103a800003003200f1ff2700f0ff2f00aeff3700e8
:103a90000d48a300030032006000b8008c80700065
:103aa000a9ff37000748a3000400320001f82700ef
:103ab000000020008c807000a3ff37007601070013
:103ac0000004fd008104fd0002057800720107007a
:103ad0000802be008a01780059ff37000160a0008b
:103ae000120220006249880097ff37000100e000c1
:103af000120032000500e00010003200889fbe0076
:103b00008a9fbe008c9fbe000006eb0001f8a30058
:103b10000300320060001000e08018000cf0a000ec
:103b200005f8a3000300320060021200e0821a00d0
:103b30000cf0a2008005eb0041ff37006000b800e8
:103b400002000500038368000700280007036300e4
:103b5000470ade000480a100c71ade000580a1002c
:103b6000f70f20000720e100420032000728e100a3
:103b700040003200889fbe008a9fbe008c1f7800e4
:103b8000f107b200f307b2000400e0006400320065
:103b90000170a0000500e000680032000370a00082
:103ba00085054200eb07b1000204b8000302b8002b
:103bb0008484440060854a00020ab800848444007a
:103bc0000a854a00030ab8000405450004003300d2
:103bd0000804d0008984d2000a85d2008b05e90050
:103be0006158e1003d00350002102000090161002c
:103bf0000308200089816100f707200087836400a3
:103c000008867300c84cde00c853dd00878474004a
:103c10004855de000300e000060032008203760013
:103c2000040032008904e80060054d000a88a30002
:103c30000c003a00f70f20000758e10044003d0057
:103c40000a70a100c75ddd000a8575008a00730057
:103c5000090078004f0678004f05be004f04be00f3
:103c6000000006000a05d1008984d3008b05e80016
:103c7000f0ff3700881f78000604780090000700e6
:103c8000070278000001fd008101fd008c000700a3
:103c900087027800850372000778a30005003200d0
:103ca0000001fd008101fd009f0007004f04780026
:103cb00000000600850372000748a30003003200dd
:103cc000f0ff2f00f1ff2700f8ff37000000200071
:103cd00001f8270088807000f4ff37008801780021
:103ce0004848dd00808171004848de00c850dd0092
:103cf00001007000c850de00060478000b01780057
:103d00001600070088807000d2ff37000500e00031
:103d100005003200170020003a0007009dff370021
:103d200081037000f9ff3a00860078004f067800a2
:103d30004f05be004f04be00000005008303710064
:103d4000f9ff3200270020002e00070094ff370003
:103d500001f8270086807000f4ff37000100e000c2
:103d600026003200610111007810e10023003c00c0
:103d70006022b8007010e100040035008002780075
:103d8000010078008000eb00700151000200e000ab
:103d90000900340070031100062add00822ade00cb
:103da0008603dd00878272000200de00860bdd00e4
:103db000070070008208de0084817100f4ff270094
:103dc0000482620084817100040028008482620001
:103dd0006102600005f0a600000006000482710088
:103de000070032000000e800e08048000000060004
:103df0000002be006000b800efff37006000b800ae
:103e000000000600889fbe000004eb006138e1005e
:103e100016003a000100e00008003a00c800de0089
:103e20004800dd00880020000100e00003003a00a7
:103e3000c800de004800dd00680444008184cf0033
:103e4000e9845400060034008908dd00f083140082
:103e50008703de00878070000900dd00090444004c
:103e6000610214004f04be00000006000300e000e1
:103e700008003a00c811de004811dd00880020006b
:103e80000300e00003003a00c811de004811dd0025
:103e9000680444008384cf00e984540006003400a1
:103ea0008919dd00f08314008713de00878171001b
:103eb0000911dd0009044400e1021400e9ff3700a4
:103ec0002700200001f0a70017002000470bde00ac
:103ed000f60fb200040032000643e8000a00320088
:103ee0004702b3000000060001037800f607b200a5
:103ef0000603700002003a000703b300000006004a
:103f00008702b3000000060001037800f607b20044
:103f100006037000020032000770a00000000600d7
:103f20000760a000000006000478a300040032002f
:103f30000578a300030032000168a30001003a00e5
:103f40000200be000160a0000000060081017000b8
:103f5000270032008002eb0001f8a30003003200ca
:103f600060001000e080180015002000f407200019
:103f70000202420020003400f703200087036000a3
:103f80000604200000036300020820000001610015
:103f90004700de00c909dd0000807100c708de00af
:103fa0000600e000080032008703710006003200be
:103fb0001000b0000180b0000188a30002003200b0
:103fc000c108de000402e800f107b200f30f200090
:103fd0000320e10003003d004722dd008100720064
:103fe0002900370001f827000000eb002600370009
:103ff0006000b80000000600680212007f20e100a7
:10400000020034006000b8001f0037006011b800e3
:104010007020e10004003500800178000100780084
:104020008000eb00700252000400e0000900340040
:10403000f00312000719dd008419de000703dd001c
:10404000868171000400de00070bdd0006007000b1
:104050008408de00f7ff2700838363008703710075
:104060000600280003036300070032000700e00099
:1040700003003a0061016000028173000200320017
:104080001000b0000180b0000500a600000006008e
:1040900001f0a000000006004f0ade004709de0024
:1040a000f107b200f20fb2000b003200f207b100cc
:1040b0000170a000c708dd00c901de008380700028
:1040c0004700dd000400a6000000060060001000ac
:1040d000e080180000000600810f700001003a0027
:1040e000000006008182cf000500e00010003e00c5
:1040f0008082cf00ee8242007028e1000400390087
:1041000007003e00800078000000eb000e00370042
:10411000708312008600de000500dd000a00370013
:10412000708352008600dd000000eb0006003700bf
:10413000e28252008508dd00708312000603de0073
:10414000868070000500dd007507b0000501ea00fb
:104150000400a6000000060060001000e0801800c7
:1041600000000600889fbe008a9fbe00841f780062
:104170007c0007004f00780011003300f0ff2f0093
:10418000838f6c0006003b00040565000a00a70051
:104190000800370009f0a6001000200008003700d2
:1041a000820f5400838f5c00030039001000200050
:1041b00001003e000000200009f0a7000000ea0016
:1041c0004f05be004f04be000000e00000000600e6
:1041d000881f7800030478000300e00007003d001a
:1041e00060001000e080180060011900e0811900f3
:1041f00002003b0001f02d0003003700040007001f
:1042000008f0a70001f0a0004f04780000000600ad
:10421000889fbe008a9fbe00008270000402710069
:1042200004827100260032000004be000200be00bd
:104230006011b8006b092000950220000182cf00b8
:104240000a0039000541b1000082cf0007003900a3
:104250000541b1000982cf00040039000541b100d9
:104260000882cf00010039000541b100054252002b
:10427000120032000a003b0082817100610164007b
:104280008100d1000080d3008984d3000884d3004a
:104290008b05e8000442e800f7ff3a00070037000a
:1042a0000804440089844c000000480081804800d4
:1042b0008b05e9000442e900f9ff3a00030007001a
:1042c0004f05be004f04be00000006008100200024
:1042d000618055000b003d000b00200061fe2f00a7
:1042e0000100e1001d003400828171006101640061
:1042f0008904d1000884d3000000e800faff3a00e6
:104300007100200061006400030070000200600082
:104310000900320061044400e0844c000988a500d3
:10432000050032008b05e8006808e10002003a0051
:104330008904d1000884d300f20f20000258e10064
:1043400005003d00c75ddd00f907b20089807500fa
:1043500008007800000006000bf827008b007800aa
:10436000000005000004be0011fc07000003be00b1
:104370000405be000200be000dfc0700844f75005e
:10438000000006006022b800060220000000d000f5
:104390008180d2000482d2008582d2000000a00079
:1043a0000202520083825a000300310002024200de
:1043b00083824a000000a1000603e900f3ff3a00ef
:1043c000000006000000fa0068815700cfb897008f
:1043d0008060800010007800230207000080fa004f
:1043e00000000600470007009f000700500107007b
:1043f00078010700d1000700ad020700580237001e
:104400000000fa0068815700cfb897002402070027
:104410000080fa00000006003a0007009200070042
:10442000430107006b010700c4000700a00207005a
:104430004b0237000000fa0068815700cfb89700a0
:104440001c0207000080fa0000000600c2040700fa
:10445000790507001306070029060700cc05370079
:10446000816080009100780062090700110020003f
:104470000000e000050035008060800090007800ba
:10448000a00020004c0a0700cf00de000100ea0077
:10449000000006000000060060c1200000000600c9
:1044a000ba0f0700a0608800906088000000060036
:1044b0008001eb000200e0001000320000027800f2
:1044c00001037800b44178000304e00008003200e2
:1044d000b14278000504e00005003200820340008c
:1044e000848f53000200320085cf5100f4ff320068
:1044f0008381fb001680fb0080815100030078005f
:1045000000000600ec874700889fbe008a9fbe001f
:104510008c9fbe008e1f7800000678000104780092
:10452000180790002805900098067800cdb79f00e6
:10453000b80590003202be002203be000400be0097
:104540000601be004f18de006011b8008000eb00cd
:10455000d0b79f00e1b79f00f2b79f0083bf9f00d5
:10456000800478000900e000060032006000b80016
:104570006011b800040250008582580006035900fb
:10458000878359000e00e000020035000d10a100e5
:10459000cdb79f000900e00005003a004fb097003a
:1045a0000028a30002003a000038a30002003200f5
:1045b0008a00e900010037008a007800f88157007e
:1045c000a200200008007800860007000900e00033
:1045d00003003a00cfb097000128a3000800320082
:1045e0000000e90000814500b1c2b3000900e0000d
:1045f00001003200d1c2b300014978000500370044
:104600000138a300030032000000e90001c2b3003a
:1046100081757800480190000201e9000001510015
:10462000808045004fb297008a0178000c00780026
:104630006a0207009c0090000188a3000400320079
:1046400098009000810f500001003d0001007800ab
:104650004f0778004f06be004f05be004f04be0056
:10466000cf00b100000006000200fa00889fbe00e3
:104670008a9fbe008005780001047800020078005f
:10468000180190002805900098007800b1bf9f00a5
:10469000b80490000200e000020035000110a10003
:1046a000b1bf9f00ea815700820020008a00780095
:1046b0003002be002003be00080078004900070059
:1046c0003fb99700f0006100030032000000e900ec
:1046d00001c3b300817478003fb99700e80061001e
:1046e000030032000000e90001c2b30081747800c9
:1046f000480190000201e90000015100808044005f
:104700003fba97008a0178000b0078003302070057
:104710009b0090000188a3000400320098009000e4
:10472000810f500001003d00010078004f05be00e0
:104730004f04be000080fa0000000600ea87470030
:10474000889fbe008a9fbe008e1f780000047800fc
:10475000030078007287570084e2260055c72600c0
:10476000049fbe00c3962200030f78006c87570099
:10477000004feb0011059000a10490009105780016
:104780000200e0000200320002077800010037005a
:10479000728757000000e00002003a000e00780027
:1047a000430a07000a00e000030035008a0f5000aa
:1047b000010036000a0078000b02780089017800b9
:1047c000000178008e0078000800780003020700de
:1047d0004f0778004f05be004f04be00af00b10088
:1047e00000000600f4874700889fbe008a9fbe0035
:1047f0008c9fbe008e1f78000605be000404be001c
:1048000081bf9f0082b79f00f3b79f00b000900068
:10481000e1b79f001301780092b79f0090069000c7
:10482000400090000000e900000678000d00e00064
:1048300001003d001d0020008040eb00efb197001b
:10484000817178001e0020001f0037000c06e9006f
:104850000fb09700cf80de006109b900a0b79f00bc
:10486000b1b79f00c2b79f00d3b79f000203be003d
:104870000002be000800be000a01be00b51007001d
:10488000000778000e4078000043b000efb09700ba
:1048900080707e008d06e9000fb997000201e900e3
:1048a00082bf9f002fb29700bfb297004fb397000f
:1048b000dfb397000800be000a01be009e1007008b
:1048c0000205be000004be000c00e0000d00340034
:1048d000e00f5400e08f5c00e00f5d00e08f5d00b2
:1048e000daff3a000d00e000d8ff3c008fb99700d6
:1048f0000300e000030034001fb097000018a3007d
:10490000d2ff3a000e00e00002003a00ffb097002c
:104910001140a1000c0078004f0778004f06be0040
:104920004f05be004f04be004f01b100000006005d
:104930000200fa00889fbe008a9fbe000005780032
:10494000010478000200780018019000a80490008b
:1049500098007800b1bf9f00b80590000200e00009
:10496000020035000110a100b1bf9f00ea8157008d
:10497000a2002000890078003002be002003be00a3
:104980000800780097ff0700480190000201e90045
:1049900000015100808045003fba970089017800ee
:1049a0000a0078008d0107009a0090000188a3009a
:1049b0000400320098009000810f500001003d007b
:1049c000010078004f05be004f04be000080fa00d1
:1049d00000000600fa874700889fbe008a9fbe003d
:1049e0008c9fbe008e1f7800800478000104780040
:1049f00082057800180190002805900018077800bb
:104a0000b80090000200e000020035000e10a10086
:104a1000010037001200200070006700e0b79f001f
:104a2000090032003b02be002b03be00e00f520023
:104a3000e08f5a00e00f5b00e08f5b000200320065
:104a40008a86e900010037008a067800e8026700dc
:104a5000f5b79f00010032008d06e9003b02be0061
:104a60002b03be00e4af9f00f5af9f0086b79f0009
:104a700097b79f00480690000c06e9000040eb0045
:104a800080707e00efb297007fb2970089037800b4
:104a900081047800d8af9f00020478008bbf9f008c
:104aa0008a057800034578002a0037000c06e900e3
:104ab0006fab97006f006300e90f500002003c00ed
:104ac0000003b000010037007005b0000a03fb00ce
:104ad0001604b100f90f53000c003e0000037800eb
:104ae0000650a0001606b100f90f530007003e0063
:104af000b4b79f00a5b79f00c7b79f00d0090700b4
:104b0000cfb39700afb297003fb2970080747e009a
:104b10000804e9008d06e9006fa89700ffa8970038
:104b20000fb197009fb19700460020008301d1008c
:104b30000281d3008180d3000080d3000603e90006
:104b4000faff3a00e0af9f00f1af9f0082b79f00ed
:104b500093b79f00e10f56000f0034006fa8970035
:104b6000ffa897000fb197009fb19700e00f50008a
:104b7000e08f5800e00f5900e08f5900cbff3a005a
:104b80000800e000c9ff3c000d00e0000200340016
:104b90000e18a300c5ff3a0089007800f4b79f0003
:104ba000870478005fac97008a4178000b05780095
:104bb0008fbd97000500e000100032003b02be00f0
:104bc0002b03be00e4af9f00f5af9f0086b79f00a8
:104bd00097b79f00e00f5200e08f5a00e00f5b0094
:104be000e08f5b00050032000c06e90083707e0058
:104bf0000c06e90000c3b30080707e00ffb297008e
:104c00000500e000030032000c06e90000c2b3001a
:104c100080707e00480190000201e9000c01510003
:104c20008c8040000e0278008a017800090078002c
:104c3000ea000700990090000188a30004003200f8
:104c400098009000810f500001003d0001007800a5
:104c50004f0778004f06be004f05be004f04be0050
:104c6000af01b100000006000200fa00881f7800c2
:104c700000047800e2bf9f006481570008007800bc
:104c800095020700980090000148a300010032003f
:104c90000080eb004f0478000080fa00000006005e
:104ca0008201780001017800f1ff27007d093700bb
:104cb000fe0637003c00fa008f017800c303b10004
:104cc0001d0009008019eb00c0a79f0080b79f005e
:104cd00080652200b0b79f0040fc2f000f0040000d
:104ce000620907000080fa0000000600889fbe00ed
:104cf000000478004800900082047800808f5400ff
:104d00000100360080047800090178005800900006
:104d1000a7070700580090000900400050049800c1
:104d2000c800900089845000490498000048eb00b6
:104d30004f04be000000060010007800e6f83700bf
:104d4000900190000388a30001003200e7ff3700c4
:104d50000348a30001003a00410e070000000600ce
:104d600084082000848f50001d0032000d003c009c
:104d700014082000848f50002700320002003c00fd
:104d8000040820000400370024082000848f50000d
:104d90003400320044082000848f500043003a0061
:104da00036003700040a2000848f500027003200ac
:104db00004003c0004092000848f50003b003a00ae
:104dc00028003700020c2000828f50002f00320094
:104dd000020f2000828f500034003a002b00370071
:104de0009380e9000200e0000500320081097800ac
:104df0001102fb00cfa2de00612bb90028003700b2
:104e000081097800114278000482fb008002eb00e7
:104e10006033b8002200370013027800e40052002b
:104e20000200e00005003200810978001102be0096
:104e30004fabde0086037800190037008109780047
:104e40001102be006033b800150037009380e900fe
:104e50008109780011027800cfa2de00612bb90031
:104e60000f00370093027800e88052008109780033
:104e70003102be002103be00090037009380e90023
:104e80000200e00002003200f1ff37009380e900e9
:104e900081097800110278008002eb006033b800cd
:104ea0000498be000690be0010000500000005003a
:104eb00044082000848f50002500320008003c0088
:104ec00014082000848f50001400320024082000b1
:104ed000848f500024003200040820000c003700aa
:104ee00004092000848f50001f00320004003c00a1
:104ef00084082000848f500024003a000e00370000
:104f0000040a2000848f500011003200040c20009d
:104f1000848f50001d003a000d0037009380e90097
:104f2000810978009100780001087800cf91de00b7
:104f30008288be00140037009380e9008109780060
:104f40009100780001087800824878000e00370050
:104f50009380e900810978009100780001087800c9
:104f600082087800080037009380e9008109780002
:104f700091007800010878006112b900612bb90036
:104f80008498be008690be00100005000000050059
:104f9000889fbe00000478004800900082047800da
:104fa000808f5400010036008004780009017800e9
:104fb00058009000fe0607005800900009004000cd
:104fc00050049800c800900089845000490498005b
:104fd0000048eb004f04be0000000600f2874700c7
:104fe000889fbe008a9fbe008c9fbe008e1f7800e7
:104ff00080047800010578000204780083057800b9
:105000006107620002003a008b0f5400080039006b
:10501000080178008a0078000900780048ff07003e
:105020008b0f540002003900880578001e003700fd
:10503000088655000c017800f00f5600010036007c
:1050400002012000010220007e805700df060700d9
:105050008c0678000500370002012000fe80570012
:105060000900780036ff0700f0865600ef8f5600e3
:10507000f9ff3e004461de0000ff2f000091b900ff
:1050800002014600fe805700090078002cff07004f
:105090000e00e00004003a00080178008a00780061
:1050a0000900780026ff07000b0078004f07780002
:1050b0004f06be004f05be004f04be002f01b100d9
:1050c00000000600000005000000050000000500cb
:1050d000000178000040eb008080fb0081804000f0
:1050e00023cd200063c278000404e00003003a00ee
:1050f00030cd200060c078000000060092017800ea
:10510000934f520004003a0030cd200060c0780078
:105110000309e800010037000040e800ea4f5000b2
:10512000edff360000000600f6874700889fbe00ae
:105130008a9fbe008c9fbe008e1f780000057800fd
:105140000104780083057800040678000000eb0075
:10515000c0b79f008080eb00d1b79f00e0b79f00f1
:10516000f2b79f000008200080bf9f0098007800e1
:10517000010078008004eb00010037008904e8009a
:10518000304178000204e0000300320053c2b30053
:10519000834f5100f9ff3a000900e000040032009b
:1051a000090178000a007800e5fe0700188c440029
:1051b0001807780050c2b3009e4f10003f013a001c
:1051c0000e07e8000e0c780010003700cfb09700f3
:1051d0000100a0000b003700cfb097000110a00025
:1051e00008003700cfb097000120a000050037006d
:1051f000cfb097000130a00002003700cfb0970079
:105200000140a000c1b79f00000ce8001800780022
:1052100090407800b2c2b30082cf5000f1ff32005c
:1052200007003c0002c2b30082cf5000f0ff320002
:1052300032c2b30082cf500007003a00efff3700c0
:10524000d2c2b30082cf5000e0ff320002c3b300ed
:1052500082cf5000e0ff3200a2c2b30082cf5000e4
:105260000d003a00000ce8001c80e900000e7800f8
:1052700010007800e0b79f000000e0000f003d0044
:10528000cfb097000100a200c1b79f000000ea0064
:10529000e0b79f0009003700b0050700e0b79f00a6
:1052a00001003700000ce800180078009000fb00b7
:1052b0000103b100e98f5000faff36004fb09700ac
:1052c0000008a300020032000010a100c0b79f0038
:1052d00018007800e1c2b30090cf100016003a0029
:1052e0008000eb00d1b79f000000e800000c7800c0
:1052f000a1c2b30090cf100006003a00000ce800f5
:105300001c80e900000e780010007800d0b79f00e4
:105310000900370091050700d0b79f000100370052
:10532000000ce800180078009000fb000103b100b9
:10533000e98f5000faff36000800780064ff07008c
:1053400080467800180078001000fb00b5070700c1
:1053500091062000810f50003800320012003c00fe
:1053600041062000810f5000340032000a003c004a
:1053700011062000810f500020003200310620006d
:10538000810f5000a000320051022000810f500018
:10539000bc003a00b400370071062000810f5000b5
:1053a000b8003c008800370001072000810f500042
:1053b0005c00320007003c00e1062000810f500035
:1053c0007a003200f1062000810f5000ad003a0053
:1053d0003900370051072000810f500027003200ac
:1053e00081072000810f5000420032003107200069
:1053f000810f5000a3003a008f0037008d80fb0022
:105400000c01780000fe2f000f004000ca070700c3
:105410000000e000a800320018007800000ce8004e
:105420009041780002fe2f000f014100f8805700e4
:105430000a00780024ff07000e0037008d80fb0073
:105440008c0178001200200000fe2f000f004000a9
:1054500043fe07000000e00097003200180ce8004f
:1054600002fe2f000f014100f88057000a0078006b
:1054700024fc070080844400900037008d80fb00ee
:105480008c0178000001eb0000fe2f000f004000af
:1054900033fe07000000e00087003200180ce8002f
:1054a00002fe2f000f014100f88057000a0078002b
:1054b0001ffd0700efff37008d80fb008c01780097
:1054c0000001eb0000fe2f000f00400024fe07004b
:1054d0000000e00078003200180ce80002fe2f0007
:1054e0000f014100f88057000a0078005efc0700b9
:1054f000e0ff37008d80fb008c0178000001eb009d
:1055000000fe2f000f00400015fe07000000e00025
:105510006900320018007800000ce8009041780023
:105520001c0037008c0178000001eb00010f200007
:1055300000fe2f000f00400009fe07000000e00001
:105540005d003200180ce8000fb097009fb0970084
:105550002fb19700bfb19700e00f5000e08f5800c7
:10556000e00f5900e08f590009003a00cfb59700cd
:105570006fb49700a0cc2000cd0607000b02780086
:105580008801780000017800a1cc20004700370096
:1055900083c7b30002fe2f000f014100f8805700bf
:1055a0000a0078000bfd0700b2ff37000b814400b2
:1055b0008d80fb008c01780000fe2f000f00400062
:1055c0003bfe07003c0037008d80fb000c0178009b
:1055d00000fe2f000f004000570707000000e0000a
:1055e0003500320018007800000ce8009041780087
:1055f00002fe2f000f014100f88057000a007800da
:10560000b1fe07009bff370000c8b30080cf5600f3
:1056100029003a00180ce8001c80e900000e780010
:1056200010407800e0df9f0013002000e2fd2f0013
:105630000f0141000800370000c8b30080cf5600ba
:105640001d003a00180ce8001c80e900000e7800ec
:105650008001eb0010017800f88057000a00780004
:1056600036fc070083ff370000c8b30080cf560028
:1056700011003a00180ce8004fb29700efb1970004
:10568000080037000e0c78000000eb00c0b79f0048
:10569000e0b79f000080eb00d0b79f000002eb0056
